{
  "_format": "hh-sol-artifact-1",
  "contractName": "Voting",
  "sourceName": "contracts/Voting.sol",
  "abi": [
    {
      "inputs": [
        {
          "internalType": "string[]",
          "name": "_candidates",
          "type": "string[]"
        }
      ],
      "stateMutability": "nonpayable",
      "type": "constructor"
    },
    {
      "inputs": [
        {
          "internalType": "address",
          "name": "",
          "type": "address"
        }
      ],
      "name": "alreadyVoted",
      "outputs": [
        {
          "internalType": "bool",
          "name": "",
          "type": "bool"
        }
      ],
      "stateMutability": "view",
      "type": "function"
    },
    {
      "inputs": [
        {
          "internalType": "uint256",
          "name": "",
          "type": "uint256"
        }
      ],
      "name": "candidates",
      "outputs": [
        {
          "internalType": "string",
          "name": "name",
          "type": "string"
        },
        {
          "internalType": "uint256",
          "name": "votingCount",
          "type": "uint256"
        }
      ],
      "stateMutability": "view",
      "type": "function"
    },
    {
      "inputs": [],
      "name": "getCandidates",
      "outputs": [
        {
          "components": [
            {
              "internalType": "string",
              "name": "name",
              "type": "string"
            },
            {
              "internalType": "uint256",
              "name": "votingCount",
              "type": "uint256"
            }
          ],
          "internalType": "struct Voting.Candidate[]",
          "name": "",
          "type": "tuple[]"
        }
      ],
      "stateMutability": "view",
      "type": "function"
    },
    {
      "inputs": [],
      "name": "getResults",
      "outputs": [
        {
          "components": [
            {
              "internalType": "string",
              "name": "name",
              "type": "string"
            },
            {
              "internalType": "uint256",
              "name": "votingCount",
              "type": "uint256"
            }
          ],
          "internalType": "struct Voting.Candidate[]",
          "name": "",
          "type": "tuple[]"
        }
      ],
      "stateMutability": "view",
      "type": "function"
    },
    {
      "inputs": [],
      "name": "getVotingStatus",
      "outputs": [
        {
          "internalType": "bool",
          "name": "",
          "type": "bool"
        }
      ],
      "stateMutability": "view",
      "type": "function"
    },
    {
      "inputs": [
        {
          "internalType": "uint256",
          "name": "_candidateIndex",
          "type": "uint256"
        }
      ],
      "name": "vote",
      "outputs": [],
      "stateMutability": "nonpayable",
      "type": "function"
    }
  ],
  "bytecode": "0x60806040523480156200001157600080fd5b506040516200143e3803806200143e83398181016040528101906200003791906200036b565b60005b8151811015620000d45760006040518060400160405280848481518110620000675762000066620003bc565b5b60200260200101518152602001600081525090806001815401808255809150506001900390600052602060002090600202016000909190919091506000820151816000019081620000b9919062000636565b5060208201518160010155505080806001019150506200003a565b50506200071d565b6000604051905090565b600080fd5b600080fd5b600080fd5b6000601f19601f8301169050919050565b7f4e487b7100000000000000000000000000000000000000000000000000000000600052604160045260246000fd5b6200014082620000f5565b810181811067ffffffffffffffff8211171562000162576200016162000106565b5b80604052505050565b600062000177620000dc565b905062000185828262000135565b919050565b600067ffffffffffffffff821115620001a857620001a762000106565b5b602082029050602081019050919050565b600080fd5b600080fd5b600067ffffffffffffffff821115620001e157620001e062000106565b5b620001ec82620000f5565b9050602081019050919050565b60005b8381101562000219578082015181840152602081019050620001fc565b60008484015250505050565b60006200023c6200023684620001c3565b6200016b565b9050828152602081018484840111156200025b576200025a620001be565b5b62000268848285620001f9565b509392505050565b600082601f830112620002885762000287620000f0565b5b81516200029a84826020860162000225565b91505092915050565b6000620002ba620002b4846200018a565b6200016b565b90508083825260208201905060208402830185811115620002e057620002df620001b9565b5b835b818110156200032e57805167ffffffffffffffff811115620003095762000308620000f0565b5b80860162000318898262000270565b85526020850194505050602081019050620002e2565b5050509392505050565b600082601f83011262000350576200034f620000f0565b5b815162000362848260208601620002a3565b91505092915050565b600060208284031215620003845762000383620000e6565b5b600082015167ffffffffffffffff811115620003a557620003a4620000eb565b5b620003b38482850162000338565b91505092915050565b7f4e487b7100000000000000000000000000000000000000000000000000000000600052603260045260246000fd5b600081519050919050565b7f4e487b7100000000000000000000000000000000000000000000000000000000600052602260045260246000fd5b600060028204905060018216806200043e57607f821691505b602082108103620004545762000453620003f6565b5b50919050565b60008190508160005260206000209050919050565b60006020601f8301049050919050565b600082821b905092915050565b600060088302620004be7fffffffffffffffffffffffffffffffffffffffffffffffffffffffffffffffff826200047f565b620004ca86836200047f565b95508019841693508086168417925050509392505050565b6000819050919050565b6000819050919050565b600062000517620005116200050b84620004e2565b620004ec565b620004e2565b9050919050565b6000819050919050565b6200053383620004f6565b6200054b62000542826200051e565b8484546200048c565b825550505050565b600090565b6200056262000553565b6200056f81848462000528565b505050565b5b8181101562000597576200058b60008262000558565b60018101905062000575565b5050565b601f821115620005e657620005b0816200045a565b620005bb846200046f565b81016020851015620005cb578190505b620005e3620005da856200046f565b83018262000574565b50505b505050565b600082821c905092915050565b60006200060b60001984600802620005eb565b1980831691505092915050565b6000620006268383620005f8565b9150826002028217905092915050565b6200064182620003eb565b67ffffffffffffffff8111156200065d576200065c62000106565b5b62000669825462000425565b620006768282856200059b565b600060209050601f831160018114620006ae576000841562000699578287015190505b620006a5858262000618565b86555062000715565b601f198416620006be866200045a565b60005b82811015620006e857848901518255600182019150602085019450602081019050620006c1565b8683101562000708578489015162000704601f891682620005f8565b8355505b6001600288020188555050505b505050505050565b610d11806200072d6000396000f3fe608060405234801561001057600080fd5b50600436106100625760003560e01c80630121b93f1461006757806306a49fce1461008357806306d2ad40146100a15780633477ee2e146100d15780634717f97c14610102578063581c281c14610120575b600080fd5b610081600480360381019061007c9190610771565b61013e565b005b61008b6102a7565b604051610098919061093c565b60405180910390f35b6100bb60048036038101906100b691906109bc565b6103a2565b6040516100c89190610a04565b60405180910390f35b6100eb60048036038101906100e69190610771565b6103c2565b6040516100f9929190610a78565b60405180910390f35b61010a61047e565b604051610117919061093c565b60405180910390f35b6101286106c8565b6040516101359190610a04565b60405180910390f35b600160003373ffffffffffffffffffffffffffffffffffffffff1673ffffffffffffffffffffffffffffffffffffffff16815260200190815260200160002060009054906101000a900460ff16156101cb576040517f08c379a00000000000000000000000000000000000000000000000000000000081526004016101c290610af4565b60405180910390fd5b6000805490508110610212576040517f08c379a000000000000000000000000000000000000000000000000000000000815260040161020990610b86565b60405180910390fd5b6000818154811061022657610225610ba6565b5b9060005260206000209060020201600101600081548092919061024890610c04565b919050555060018060003373ffffffffffffffffffffffffffffffffffffffff1673ffffffffffffffffffffffffffffffffffffffff16815260200190815260200160002060006101000a81548160ff02191690831515021790555050565b60606000805480602002602001604051908101604052809291908181526020016000905b8282101561039957838290600052602060002090600202016040518060400160405290816000820180546102fe90610c7b565b80601f016020809104026020016040519081016040528092919081815260200182805461032a90610c7b565b80156103775780601f1061034c57610100808354040283529160200191610377565b820191906000526020600020905b81548152906001019060200180831161035a57829003601f168201915b50505050508152602001600182015481525050815260200190600101906102cb565b50505050905090565b60016020528060005260406000206000915054906101000a900460ff1681565b600081815481106103d257600080fd5b90600052602060002090600202016000915090508060000180546103f590610c7b565b80601f016020809104026020016040519081016040528092919081815260200182805461042190610c7b565b801561046e5780601f106104435761010080835404028352916020019161046e565b820191906000526020600020905b81548152906001019060200180831161045157829003601f168201915b5050505050908060010154905082565b606060008060008154811061049657610495610ba6565b5b9060005260206000209060020201600101549050600080808054905067ffffffffffffffff8111156104cb576104ca610cac565b5b60405190808252806020026020018201604052801561050457816020015b6104f161071c565b8152602001906001900390816104e95790505b5090506000600190505b60008054905081101561057e5783600082815481106105305761052f610ba6565b5b9060005260206000209060020201600101541115610571576000818154811061055c5761055b610ba6565b5b90600052602060002090600202016001015493505b808060010191505061050e565b5060005b6000805490508110156106be5783600082815481106105a4576105a3610ba6565b5b906000526020600020906002020160010154036106b157600081815481106105cf576105ce610ba6565b5b90600052602060002090600202016040518060400160405290816000820180546105f890610c7b565b80601f016020809104026020016040519081016040528092919081815260200182805461062490610c7b565b80156106715780601f1061064657610100808354040283529160200191610671565b820191906000526020600020905b81548152906001019060200180831161065457829003601f168201915b5050505050815260200160018201548152505082848151811061069757610696610ba6565b5b602002602001018190525082806106ad90610c04565b9350505b8080600101915050610582565b5080935050505090565b6000600160003373ffffffffffffffffffffffffffffffffffffffff1673ffffffffffffffffffffffffffffffffffffffff16815260200190815260200160002060009054906101000a900460ff16905090565b604051806040016040528060608152602001600081525090565b600080fd5b6000819050919050565b61074e8161073b565b811461075957600080fd5b50565b60008135905061076b81610745565b92915050565b60006020828403121561078757610786610736565b5b60006107958482850161075c565b91505092915050565b600081519050919050565b600082825260208201905092915050565b6000819050602082019050919050565b600081519050919050565b600082825260208201905092915050565b60005b838110156108045780820151818401526020810190506107e9565b60008484015250505050565b6000601f19601f8301169050919050565b600061082c826107ca565b61083681856107d5565b93506108468185602086016107e6565b61084f81610810565b840191505092915050565b6108638161073b565b82525050565b600060408301600083015184820360008601526108868282610821565b915050602083015161089b602086018261085a565b508091505092915050565b60006108b28383610869565b905092915050565b6000602082019050919050565b60006108d28261079e565b6108dc81856107a9565b9350836020820285016108ee856107ba565b8060005b8581101561092a578484038952815161090b85826108a6565b9450610916836108ba565b925060208a019950506001810190506108f2565b50829750879550505050505092915050565b6000602082019050818103600083015261095681846108c7565b905092915050565b600073ffffffffffffffffffffffffffffffffffffffff82169050919050565b60006109898261095e565b9050919050565b6109998161097e565b81146109a457600080fd5b50565b6000813590506109b681610990565b92915050565b6000602082840312156109d2576109d1610736565b5b60006109e0848285016109a7565b91505092915050565b60008115159050919050565b6109fe816109e9565b82525050565b6000602082019050610a1960008301846109f5565b92915050565b600082825260208201905092915050565b6000610a3b826107ca565b610a458185610a1f565b9350610a558185602086016107e6565b610a5e81610810565b840191505092915050565b610a728161073b565b82525050565b60006040820190508181036000830152610a928185610a30565b9050610aa16020830184610a69565b9392505050565b7f596f75206861766520616c726561647920766f74656421000000000000000000600082015250565b6000610ade601783610a1f565b9150610ae982610aa8565b602082019050919050565b60006020820190508181036000830152610b0d81610ad1565b9050919050565b7f506c656173652073656c65637420612076616c69642063616e6469646174652060008201527f696e646578000000000000000000000000000000000000000000000000000000602082015250565b6000610b70602583610a1f565b9150610b7b82610b14565b604082019050919050565b60006020820190508181036000830152610b9f81610b63565b9050919050565b7f4e487b7100000000000000000000000000000000000000000000000000000000600052603260045260246000fd5b7f4e487b7100000000000000000000000000000000000000000000000000000000600052601160045260246000fd5b6000610c0f8261073b565b91507fffffffffffffffffffffffffffffffffffffffffffffffffffffffffffffffff8203610c4157610c40610bd5565b5b600182019050919050565b7f4e487b7100000000000000000000000000000000000000000000000000000000600052602260045260246000fd5b60006002820490506001821680610c9357607f821691505b602082108103610ca657610ca5610c4c565b5b50919050565b7f4e487b7100000000000000000000000000000000000000000000000000000000600052604160045260246000fdfea26469706673582212206eeab12740b606c15cfdf2768e234acc60994f6a8253162cc35b4ea4010dfdfc64736f6c63430008180033",
  "linkReferences": {},
  "deployedLinkReferences": {}
}